{
    "contractName": "CITY",
    "abi": [
        {
            "inputs": [],
            "stateMutability": "nonpayable",
            "type": "constructor"
        },
        {
            "anonymous": false,
            "inputs": [
                {
                    "indexed": true,
                    "internalType": "address",
                    "name": "owner",
                    "type": "address"
                },
                {
                    "indexed": true,
                    "internalType": "address",
                    "name": "spender",
                    "type": "address"
                },
                {
                    "indexed": false,
                    "internalType": "uint256",
                    "name": "value",
                    "type": "uint256"
                }
            ],
            "name": "Approval",
            "type": "event"
        },
        {
            "anonymous": false,
            "inputs": [
                {
                    "indexed": true,
                    "internalType": "address",
                    "name": "from",
                    "type": "address"
                },
                {
                    "indexed": true,
                    "internalType": "address",
                    "name": "to",
                    "type": "address"
                },
                {
                    "indexed": false,
                    "internalType": "uint256",
                    "name": "value",
                    "type": "uint256"
                }
            ],
            "name": "Transfer",
            "type": "event"
        },
        {
            "inputs": [
                {
                    "internalType": "address",
                    "name": "owner",
                    "type": "address"
                },
                {
                    "internalType": "address",
                    "name": "spender",
                    "type": "address"
                }
            ],
            "name": "allowance",
            "outputs": [
                {
                    "internalType": "uint256",
                    "name": "",
                    "type": "uint256"
                }
            ],
            "stateMutability": "view",
            "type": "function"
        },
        {
            "inputs": [
                {
                    "internalType": "address",
                    "name": "spender",
                    "type": "address"
                },
                {
                    "internalType": "uint256",
                    "name": "amount",
                    "type": "uint256"
                }
            ],
            "name": "approve",
            "outputs": [
                {
                    "internalType": "bool",
                    "name": "",
                    "type": "bool"
                }
            ],
            "stateMutability": "nonpayable",
            "type": "function"
        },
        {
            "inputs": [
                {
                    "internalType": "address",
                    "name": "account",
                    "type": "address"
                }
            ],
            "name": "balanceOf",
            "outputs": [
                {
                    "internalType": "uint256",
                    "name": "",
                    "type": "uint256"
                }
            ],
            "stateMutability": "view",
            "type": "function"
        },
        {
            "inputs": [
                {
                    "internalType": "uint256",
                    "name": "amount",
                    "type": "uint256"
                }
            ],
            "name": "burn",
            "outputs": [],
            "stateMutability": "nonpayable",
            "type": "function"
        },
        {
            "inputs": [
                {
                    "internalType": "address",
                    "name": "i",
                    "type": "address"
                }
            ],
            "name": "check_admin",
            "outputs": [
                {
                    "internalType": "bool",
                    "name": "",
                    "type": "bool"
                }
            ],
            "stateMutability": "view",
            "type": "function"
        },
        {
            "inputs": [],
            "name": "decimals",
            "outputs": [
                {
                    "internalType": "uint8",
                    "name": "",
                    "type": "uint8"
                }
            ],
            "stateMutability": "view",
            "type": "function"
        },
        {
            "inputs": [
                {
                    "internalType": "address",
                    "name": "spender",
                    "type": "address"
                },
                {
                    "internalType": "uint256",
                    "name": "subtractedValue",
                    "type": "uint256"
                }
            ],
            "name": "decreaseAllowance",
            "outputs": [
                {
                    "internalType": "bool",
                    "name": "",
                    "type": "bool"
                }
            ],
            "stateMutability": "nonpayable",
            "type": "function"
        },
        {
            "inputs": [
                {
                    "internalType": "address",
                    "name": "to",
                    "type": "address"
                }
            ],
            "name": "get_locked_account",
            "outputs": [
                {
                    "internalType": "bool",
                    "name": "",
                    "type": "bool"
                }
            ],
            "stateMutability": "view",
            "type": "function"
        },
        {
            "inputs": [],
            "name": "get_mint_completed",
            "outputs": [
                {
                    "internalType": "bool",
                    "name": "",
                    "type": "bool"
                }
            ],
            "stateMutability": "view",
            "type": "function"
        },
        {
            "inputs": [],
            "name": "get_total_withdrawal_limit",
            "outputs": [
                {
                    "internalType": "uint256",
                    "name": "",
                    "type": "uint256"
                }
            ],
            "stateMutability": "view",
            "type": "function"
        },
        {
            "inputs": [
                {
                    "internalType": "address",
                    "name": "to",
                    "type": "address"
                }
            ],
            "name": "get_withdrawal_limit",
            "outputs": [
                {
                    "internalType": "uint256",
                    "name": "",
                    "type": "uint256"
                }
            ],
            "stateMutability": "view",
            "type": "function"
        },
        {
            "inputs": [
                {
                    "internalType": "address",
                    "name": "spender",
                    "type": "address"
                },
                {
                    "internalType": "uint256",
                    "name": "addedValue",
                    "type": "uint256"
                }
            ],
            "name": "increaseAllowance",
            "outputs": [
                {
                    "internalType": "bool",
                    "name": "",
                    "type": "bool"
                }
            ],
            "stateMutability": "nonpayable",
            "type": "function"
        },
        {
            "inputs": [
                {
                    "internalType": "address",
                    "name": "to",
                    "type": "address"
                },
                {
                    "internalType": "uint256",
                    "name": "amount",
                    "type": "uint256"
                }
            ],
            "name": "mint",
            "outputs": [],
            "stateMutability": "nonpayable",
            "type": "function"
        },
        {
            "inputs": [
                {
                    "internalType": "uint256",
                    "name": "amount",
                    "type": "uint256"
                }
            ],
            "name": "mint",
            "outputs": [],
            "stateMutability": "nonpayable",
            "type": "function"
        },
        {
            "inputs": [
                {
                    "internalType": "address",
                    "name": "to",
                    "type": "address"
                },
                {
                    "internalType": "uint256",
                    "name": "amount",
                    "type": "uint256"
                }
            ],
            "name": "mint_with_lock",
            "outputs": [],
            "stateMutability": "nonpayable",
            "type": "function"
        },
        {
            "inputs": [
                {
                    "internalType": "address",
                    "name": "to",
                    "type": "address"
                },
                {
                    "internalType": "uint256",
                    "name": "amount",
                    "type": "uint256"
                }
            ],
            "name": "mint_withdrawal_limit",
            "outputs": [],
            "stateMutability": "nonpayable",
            "type": "function"
        },
        {
            "inputs": [],
            "name": "name",
            "outputs": [
                {
                    "internalType": "string",
                    "name": "",
                    "type": "string"
                }
            ],
            "stateMutability": "view",
            "type": "function"
        },
        {
            "inputs": [],
            "name": "set_admin",
            "outputs": [],
            "stateMutability": "nonpayable",
            "type": "function"
        },
        {
            "inputs": [
                {
                    "internalType": "address",
                    "name": "i",
                    "type": "address"
                }
            ],
            "name": "set_admin",
            "outputs": [],
            "stateMutability": "nonpayable",
            "type": "function"
        },
        {
            "inputs": [
                {
                    "internalType": "bool",
                    "name": "i",
                    "type": "bool"
                }
            ],
            "name": "set_mint_completed",
            "outputs": [],
            "stateMutability": "nonpayable",
            "type": "function"
        },
        {
            "inputs": [],
            "name": "symbol",
            "outputs": [
                {
                    "internalType": "string",
                    "name": "",
                    "type": "string"
                }
            ],
            "stateMutability": "view",
            "type": "function"
        },
        {
            "inputs": [],
            "name": "totalSupply",
            "outputs": [
                {
                    "internalType": "uint256",
                    "name": "",
                    "type": "uint256"
                }
            ],
            "stateMutability": "view",
            "type": "function"
        },
        {
            "inputs": [
                {
                    "internalType": "address",
                    "name": "to",
                    "type": "address"
                },
                {
                    "internalType": "uint256",
                    "name": "amount",
                    "type": "uint256"
                }
            ],
            "name": "transfer",
            "outputs": [
                {
                    "internalType": "bool",
                    "name": "",
                    "type": "bool"
                }
            ],
            "stateMutability": "nonpayable",
            "type": "function"
        },
        {
            "inputs": [
                {
                    "internalType": "address",
                    "name": "from",
                    "type": "address"
                },
                {
                    "internalType": "address",
                    "name": "to",
                    "type": "address"
                },
                {
                    "internalType": "uint256",
                    "name": "amount",
                    "type": "uint256"
                }
            ],
            "name": "transferFrom",
            "outputs": [
                {
                    "internalType": "bool",
                    "name": "",
                    "type": "bool"
                }
            ],
            "stateMutability": "nonpayable",
            "type": "function"
        }
    ],
    "bytecode": "60806040526005805460ff60a01b191690553480156200001e57600080fd5b50604080518082018252600a8152695365636f6e644369747960b01b6020808301918252835180850190945260048452634349545960e01b9084015281519192916200006d91600391620000b2565b50805162000083906004906020840190620000b2565b5050600580546001600160a01b0319167369a63958c872f0a8faf3c936352be385e2b51b191790555062000195565b828054620000c09062000158565b90600052602060002090601f016020900481019282620000e457600085556200012f565b82601f10620000ff57805160ff19168380011785556200012f565b828001600101855582156200012f579182015b828111156200012f57825182559160200191906001019062000112565b506200013d92915062000141565b5090565b5b808211156200013d576000815560010162000142565b6002810460018216806200016d57607f821691505b602082108114156200018f57634e487b7160e01b600052602260045260246000fd5b50919050565b61132080620001a56000396000f3fe608060405234801561001057600080fd5b50600436106101585760003560e01c806370a08231116100c3578063a457c2d71161007c578063a457c2d7146102a5578063a9059cbb146102b8578063c071f37e146102cb578063d403044d146102de578063dd62ed3e146102f1578063e9333fab1461030457610158565b806370a082311461024957806387d908b81461025c57806395d89b411461026f57806396d66b0b14610277578063a0712d681461027f578063a227bb361461029257610158565b8063395093511161011557806339509351146101ed5780633b8014bd146102005780633d6c749f1461021357806340c10f191461021b57806342966c681461022e57806362569b7c1461024157610158565b806306fdde031461015d578063095ea7b31461017b57806318160ddd1461019b57806323b872dd146101b0578063313ce567146101c357806332a5dd09146101d8575b600080fd5b610165610317565b6040516101729190610eb4565b60405180910390f35b61018e610189366004610e48565b6103a9565b6040516101729190610ea9565b6101a36103cd565b6040516101729190611253565b61018e6101be366004610e0d565b6103d3565b6101cb61043b565b604051610172919061125c565b6101eb6101e6366004610e48565b610440565b005b61018e6101fb366004610e48565b6104d1565b6101eb61020e366004610e48565b61051d565b6101eb6105a0565b6101eb610229366004610e48565b6105dd565b6101eb61023c366004610e91565b61063f565b6101a361067c565b6101a3610257366004610dba565b610682565b6101eb61026a366004610e71565b6106a1565b610165610713565b61018e610722565b6101eb61028d366004610e91565b610732565b61018e6102a0366004610dba565b610790565b61018e6102b3366004610e48565b6107ae565b61018e6102c6366004610e48565b61080f565b6101a36102d9366004610dba565b610858565b61018e6102ec366004610dba565b610873565b6101a36102ff366004610ddb565b610887565b6101eb610312366004610dba565b6108b2565b60606003805461032690611299565b80601f016020809104026020016040519081016040528092919081815260200182805461035290611299565b801561039f5780601f106103745761010080835404028352916020019161039f565b820191906000526020600020905b81548152906001019060200180831161038257829003601f168201915b5050505050905090565b6000806103b46108fe565b90506103c1818585610902565b60019150505b92915050565b60025490565b60006103df84836109b6565b6104045760405162461bcd60e51b81526004016103fb906110fd565b60405180910390fd5b600061040e6108fe565b905061041b858285610a0f565b610426858585610a59565b6104308584610b7d565b506001949350505050565b601290565b6005546001600160a01b0316331461046a5760405162461bcd60e51b81526004016103fb90611052565b6001600160a01b0382166000908152600660209081526040808320805460ff1916600117905560079091529020546104a390829061126a565b6001600160a01b0383166000908152600760205260409020556008546104ca90829061126a565b6008555050565b6000806104dc6108fe565b6001600160a01b038082166000908152600160209081526040808320938916835292905220549091506103c1908290869061051890879061126a565b610902565b6005546001600160a01b031633146105475760405162461bcd60e51b81526004016103fb90611052565b600554600160a01b900460ff16156105715760405162461bcd60e51b81526004016103fb90610f4a565b61057b8282610be9565b506001600160a01b03166000908152600660205260409020805460ff19166001179055565b6005546001600160a01b0316156105c95760405162461bcd60e51b81526004016103fb906111af565b600580546001600160a01b03191633179055565b6005546001600160a01b031633146106075760405162461bcd60e51b81526004016103fb90611052565b600554600160a01b900460ff16156106315760405162461bcd60e51b81526004016103fb90610f4a565b61063b8282610be9565b5050565b61064933826109b6565b6106655760405162461bcd60e51b81526004016103fb9061102d565b61066f3382610cb1565b6106793382610b7d565b50565b60085490565b6001600160a01b0381166000908152602081905260409020545b919050565b6005546001600160a01b031633146106cb5760405162461bcd60e51b81526004016103fb90611052565b600554600160a01b900460ff16156106f55760405162461bcd60e51b81526004016103fb90610f4a565b60058054911515600160a01b0260ff60a01b19909216919091179055565b60606004805461032690611299565b600554600160a01b900460ff1690565b6005546001600160a01b0316331461075c5760405162461bcd60e51b81526004016103fb90611052565b600554600160a01b900460ff16156107865760405162461bcd60e51b81526004016103fb90610f4a565b6106793382610be9565b6001600160a01b031660009081526006602052604090205460ff1690565b6000806107b96108fe565b6001600160a01b03808216600090815260016020908152604080832093891683529290522054909150838110156108025760405162461bcd60e51b81526004016103fb906111d7565b6104308286868403610902565b600061081b33836109b6565b6108375760405162461bcd60e51b81526004016103fb906110fd565b60006108416108fe565b905061084e818585610a59565b6103c13384610b7d565b6001600160a01b031660009081526007602052604090205490565b6005546001600160a01b0391821691161490565b6001600160a01b03918216600090815260016020908152604080832093909416825291909152205490565b6005546001600160a01b031633146108dc5760405162461bcd60e51b81526004016103fb90611052565b600580546001600160a01b0319166001600160a01b0392909216919091179055565b3390565b6001600160a01b0383166109285760405162461bcd60e51b81526004016103fb9061116b565b6001600160a01b03821661094e5760405162461bcd60e51b81526004016103fb90610fb4565b6001600160a01b0380841660008181526001602090815260408083209487168084529490915290819020849055517f8c5be1e5ebec7d5bd14f71427d1e84f3dd0314c0f7b2291e5b200ac8c7c3b925906109a9908590611253565b60405180910390a3505050565b6001600160a01b03821660009081526006602052604081205460ff1615610a06576001600160a01b03831660009081526007602052604090205482116109fe575060016103c7565b5060006103c7565b50600192915050565b6000610a1b8484610887565b90506000198114610a535781811015610a465760405162461bcd60e51b81526004016103fb90610ff6565b610a538484848403610902565b50505050565b6001600160a01b038316610a7f5760405162461bcd60e51b81526004016103fb90611126565b6001600160a01b038216610aa55760405162461bcd60e51b81526004016103fb90610f07565b610ab0838383610d9e565b6001600160a01b03831660009081526020819052604090205481811015610ae95760405162461bcd60e51b81526004016103fb90611076565b6001600160a01b03808516600090815260208190526040808220858503905591851681529081208054849290610b2090849061126a565b92505081905550826001600160a01b0316846001600160a01b03167fddf252ad1be2c89b69c2b068fc378daa952ba7f163c4a11628f55a4df523b3ef84604051610b6a9190611253565b60405180910390a3610a53848484610d9e565b6001600160a01b03821660009081526006602052604090205460ff161561063b576001600160a01b038216600090815260076020526040902054610bc2908290611282565b6001600160a01b0383166000908152600760205260409020556008546104ca908290611282565b6001600160a01b038216610c0f5760405162461bcd60e51b81526004016103fb9061121c565b610c1b60008383610d9e565b8060026000828254610c2d919061126a565b90915550506001600160a01b03821660009081526020819052604081208054839290610c5a90849061126a565b90915550506040516001600160a01b038316906000907fddf252ad1be2c89b69c2b068fc378daa952ba7f163c4a11628f55a4df523b3ef90610c9d908590611253565b60405180910390a361063b60008383610d9e565b6001600160a01b038216610cd75760405162461bcd60e51b81526004016103fb906110bc565b610ce382600083610d9e565b6001600160a01b03821660009081526020819052604090205481811015610d1c5760405162461bcd60e51b81526004016103fb90610f72565b6001600160a01b0383166000908152602081905260408120838303905560028054849290610d4b908490611282565b90915550506040516000906001600160a01b038516907fddf252ad1be2c89b69c2b068fc378daa952ba7f163c4a11628f55a4df523b3ef90610d8e908690611253565b60405180910390a3610d9e836000845b505050565b80356001600160a01b038116811461069c57600080fd5b600060208284031215610dcb578081fd5b610dd482610da3565b9392505050565b60008060408385031215610ded578081fd5b610df683610da3565b9150610e0460208401610da3565b90509250929050565b600080600060608486031215610e21578081fd5b610e2a84610da3565b9250610e3860208501610da3565b9150604084013590509250925092565b60008060408385031215610e5a578182fd5b610e6383610da3565b946020939093013593505050565b600060208284031215610e82578081fd5b81358015158114610dd4578182fd5b600060208284031215610ea2578081fd5b5035919050565b901515815260200190565b6000602080835283518082850152825b81811015610ee057858101830151858201604001528201610ec4565b81811115610ef15783604083870101525b50601f01601f1916929092016040019392505050565b60208082526023908201527f45524332303a207472616e7366657220746f20746865207a65726f206164647260408201526265737360e81b606082015260800190565b6020808252600e908201526d1b5a5b9d0818dbdb5c1b195d195960921b604082015260600190565b60208082526022908201527f45524332303a206275726e20616d6f756e7420657863656564732062616c616e604082015261636560f01b606082015260800190565b60208082526022908201527f45524332303a20617070726f766520746f20746865207a65726f206164647265604082015261737360f01b606082015260800190565b6020808252601d908201527f45524332303a20696e73756666696369656e7420616c6c6f77616e6365000000604082015260600190565b6020808252600b908201526a31b0b73737ba10313ab93760a91b604082015260600190565b6020808252600a908201526961646d696e206f6e6c7960b01b604082015260600190565b60208082526026908201527f45524332303a207472616e7366657220616d6f756e7420657863656564732062604082015265616c616e636560d01b606082015260800190565b60208082526021908201527f45524332303a206275726e2066726f6d20746865207a65726f206164647265736040820152607360f81b606082015260800190565b6020808252600f908201526e63616e6e6f7420776974686472617760881b604082015260600190565b60208082526025908201527f45524332303a207472616e736665722066726f6d20746865207a65726f206164604082015264647265737360d81b606082015260800190565b60208082526024908201527f45524332303a20617070726f76652066726f6d20746865207a65726f206164646040820152637265737360e01b606082015260800190565b6020808252600e908201526d18591b5a5b881b9bdd081b9d5b1b60921b604082015260600190565b60208082526025908201527f45524332303a2064656372656173656420616c6c6f77616e63652062656c6f77604082015264207a65726f60d81b606082015260800190565b6020808252601f908201527f45524332303a206d696e7420746f20746865207a65726f206164647265737300604082015260600190565b90815260200190565b60ff91909116815260200190565b6000821982111561127d5761127d6112d4565b500190565b600082821015611294576112946112d4565b500390565b6002810460018216806112ad57607f821691505b602082108114156112ce57634e487b7160e01b600052602260045260246000fd5b50919050565b634e487b7160e01b600052601160045260246000fdfea2646970667358221220340ee636c22dd0a2e2a14767ac751b521f914009f4ce7b9e5b7ed8cf5f5419cc64736f6c63430008000033",
    "sourcePath": "c:/Users/82108/Desktop/WORK/m_server_test/sol/CITY.sol",
    "compiler": {
        "name": "solc",
        "version": "0.8.0+commit.c7dfd78e"
    },
    "functionHashes": {
        "allowance(address,address)": "dd62ed3e",
        "approve(address,uint256)": "095ea7b3",
        "balanceOf(address)": "70a08231",
        "burn(uint256)": "42966c68",
        "check_admin(address)": "d403044d",
        "decimals()": "313ce567",
        "decreaseAllowance(address,uint256)": "a457c2d7",
        "get_locked_account(address)": "a227bb36",
        "get_mint_completed()": "96d66b0b",
        "get_total_withdrawal_limit()": "62569b7c",
        "get_withdrawal_limit(address)": "c071f37e",
        "increaseAllowance(address,uint256)": "39509351",
        "mint(address,uint256)": "40c10f19",
        "mint(uint256)": "a0712d68",
        "mint_with_lock(address,uint256)": "3b8014bd",
        "mint_withdrawal_limit(address,uint256)": "32a5dd09",
        "name()": "06fdde03",
        "set_admin()": "3d6c749f",
        "set_admin(address)": "e9333fab",
        "set_mint_completed(bool)": "87d908b8",
        "symbol()": "95d89b41",
        "totalSupply()": "18160ddd",
        "transfer(address,uint256)": "a9059cbb",
        "transferFrom(address,address,uint256)": "23b872dd"
    },
    "gasEstimates": {
        "creation": {
            "codeDepositCost": "979200",
            "executionCost": "infinite",
            "totalCost": "infinite"
        },
        "external": {
            "allowance(address,address)": "infinite",
            "approve(address,uint256)": "22646",
            "balanceOf(address)": "infinite",
            "burn(uint256)": "infinite",
            "check_admin(address)": "1313",
            "decimals()": "352",
            "decreaseAllowance(address,uint256)": "23623",
            "get_locked_account(address)": "1415",
            "get_mint_completed()": "1146",
            "get_total_withdrawal_limit()": "1161",
            "get_withdrawal_limit(address)": "1336",
            "increaseAllowance(address,uint256)": "23673",
            "mint(address,uint256)": "infinite",
            "mint(uint256)": "infinite",
            "mint_with_lock(address,uint256)": "infinite",
            "mint_withdrawal_limit(address,uint256)": "infinite",
            "name()": "infinite",
            "set_admin()": "21884",
            "set_admin(address)": "22143",
            "set_mint_completed(bool)": "22848",
            "symbol()": "infinite",
            "totalSupply()": "1096",
            "transfer(address,uint256)": "infinite",
            "transferFrom(address,address,uint256)": "infinite"
        },
        "internal": {
            "_check_withdrawable(address,uint256)": "1864",
            "_sub_withdrawal(address,uint256)": "infinite"
        }
    }
}